{
  "_format": "hh-sol-artifact-1",
  "contractName": "ChainReactionGame",
  "sourceName": "contracts/ChainReactionGame.sol",
  "abi": [
    {
      "inputs": [],
      "stateMutability": "nonpayable",
      "type": "constructor"
    },
    {
      "inputs": [
        {
          "internalType": "address",
          "name": "owner",
          "type": "address"
        }
      ],
      "name": "OwnableInvalidOwner",
      "type": "error"
    },
    {
      "inputs": [
        {
          "internalType": "address",
          "name": "account",
          "type": "address"
        }
      ],
      "name": "OwnableUnauthorizedAccount",
      "type": "error"
    },
    {
      "anonymous": false,
      "inputs": [
        {
          "indexed": true,
          "internalType": "uint256",
          "name": "chainReactionId",
          "type": "uint256"
        },
        {
          "indexed": false,
          "internalType": "uint256[]",
          "name": "reactorIds",
          "type": "uint256[]"
        },
        {
          "indexed": false,
          "internalType": "uint256",
          "name": "totalEnergy",
          "type": "uint256"
        }
      ],
      "name": "ChainReactionCreated",
      "type": "event"
    },
    {
      "anonymous": false,
      "inputs": [
        {
          "indexed": true,
          "internalType": "address",
          "name": "previousOwner",
          "type": "address"
        },
        {
          "indexed": true,
          "internalType": "address",
          "name": "newOwner",
          "type": "address"
        }
      ],
      "name": "OwnershipTransferred",
      "type": "event"
    },
    {
      "anonymous": false,
      "inputs": [
        {
          "indexed": false,
          "internalType": "string",
          "name": "phase",
          "type": "string"
        },
        {
          "indexed": false,
          "internalType": "uint256",
          "name": "timestamp",
          "type": "uint256"
        }
      ],
      "name": "PhaseChanged",
      "type": "event"
    },
    {
      "anonymous": false,
      "inputs": [
        {
          "indexed": true,
          "internalType": "address",
          "name": "player",
          "type": "address"
        },
        {
          "indexed": false,
          "internalType": "uint256",
          "name": "startingPoints",
          "type": "uint256"
        }
      ],
      "name": "PlayerJoined",
      "type": "event"
    },
    {
      "anonymous": false,
      "inputs": [
        {
          "indexed": true,
          "internalType": "address",
          "name": "player",
          "type": "address"
        },
        {
          "indexed": false,
          "internalType": "uint256",
          "name": "points",
          "type": "uint256"
        },
        {
          "indexed": false,
          "internalType": "uint256",
          "name": "totalScore",
          "type": "uint256"
        }
      ],
      "name": "PointsEarned",
      "type": "event"
    },
    {
      "anonymous": false,
      "inputs": [
        {
          "indexed": true,
          "internalType": "uint256",
          "name": "reactorId",
          "type": "uint256"
        },
        {
          "indexed": true,
          "internalType": "address",
          "name": "owner",
          "type": "address"
        },
        {
          "indexed": false,
          "internalType": "uint256",
          "name": "x",
          "type": "uint256"
        },
        {
          "indexed": false,
          "internalType": "uint256",
          "name": "y",
          "type": "uint256"
        },
        {
          "indexed": false,
          "internalType": "uint256",
          "name": "energy",
          "type": "uint256"
        }
      ],
      "name": "ReactorDeployed",
      "type": "event"
    },
    {
      "anonymous": false,
      "inputs": [
        {
          "indexed": true,
          "internalType": "uint256",
          "name": "reactorId",
          "type": "uint256"
        },
        {
          "indexed": false,
          "internalType": "uint256",
          "name": "energy",
          "type": "uint256"
        },
        {
          "indexed": false,
          "internalType": "uint256",
          "name": "chainReactionId",
          "type": "uint256"
        }
      ],
      "name": "ReactorTriggered",
      "type": "event"
    },
    {
      "anonymous": false,
      "inputs": [
        {
          "indexed": false,
          "internalType": "uint256",
          "name": "roundNumber",
          "type": "uint256"
        },
        {
          "indexed": false,
          "internalType": "uint256",
          "name": "endTime",
          "type": "uint256"
        }
      ],
      "name": "RoundEnded",
      "type": "event"
    },
    {
      "anonymous": false,
      "inputs": [
        {
          "indexed": false,
          "internalType": "uint256",
          "name": "roundNumber",
          "type": "uint256"
        },
        {
          "indexed": false,
          "internalType": "uint256",
          "name": "startTime",
          "type": "uint256"
        }
      ],
      "name": "RoundStarted",
      "type": "event"
    },
    {
      "inputs": [],
      "name": "DEPLOY_PHASE_DURATION",
      "outputs": [
        {
          "internalType": "uint256",
          "name": "",
          "type": "uint256"
        }
      ],
      "stateMutability": "view",
      "type": "function"
    },
    {
      "inputs": [],
      "name": "MAX_ENERGY",
      "outputs": [
        {
          "internalType": "uint256",
          "name": "",
          "type": "uint256"
        }
      ],
      "stateMutability": "view",
      "type": "function"
    },
    {
      "inputs": [],
      "name": "MAX_REACTORS_PER_ROUND",
      "outputs": [
        {
          "internalType": "uint256",
          "name": "",
          "type": "uint256"
        }
      ],
      "stateMutability": "view",
      "type": "function"
    },
    {
      "inputs": [],
      "name": "MINIMUM_POINTS",
      "outputs": [
        {
          "internalType": "uint256",
          "name": "",
          "type": "uint256"
        }
      ],
      "stateMutability": "view",
      "type": "function"
    },
    {
      "inputs": [],
      "name": "ROUND_DURATION",
      "outputs": [
        {
          "internalType": "uint256",
          "name": "",
          "type": "uint256"
        }
      ],
      "stateMutability": "view",
      "type": "function"
    },
    {
      "inputs": [],
      "name": "SCORING_PHASE_DURATION",
      "outputs": [
        {
          "internalType": "uint256",
          "name": "",
          "type": "uint256"
        }
      ],
      "stateMutability": "view",
      "type": "function"
    },
    {
      "inputs": [],
      "name": "SEASON_DURATION",
      "outputs": [
        {
          "internalType": "uint256",
          "name": "",
          "type": "uint256"
        }
      ],
      "stateMutability": "view",
      "type": "function"
    },
    {
      "inputs": [],
      "name": "STARTING_POINTS",
      "outputs": [
        {
          "internalType": "uint256",
          "name": "",
          "type": "uint256"
        }
      ],
      "stateMutability": "view",
      "type": "function"
    },
    {
      "inputs": [],
      "name": "TRIGGER_COOLDOWN",
      "outputs": [
        {
          "internalType": "uint256",
          "name": "",
          "type": "uint256"
        }
      ],
      "stateMutability": "view",
      "type": "function"
    },
    {
      "inputs": [],
      "name": "TRIGGER_PHASE_DURATION",
      "outputs": [
        {
          "internalType": "uint256",
          "name": "",
          "type": "uint256"
        }
      ],
      "stateMutability": "view",
      "type": "function"
    },
    {
      "inputs": [
        {
          "internalType": "uint256",
          "name": "",
          "type": "uint256"
        }
      ],
      "name": "allPlayers",
      "outputs": [
        {
          "internalType": "address",
          "name": "",
          "type": "address"
        }
      ],
      "stateMutability": "view",
      "type": "function"
    },
    {
      "inputs": [
        {
          "internalType": "uint256",
          "name": "",
          "type": "uint256"
        }
      ],
      "name": "chainReactions",
      "outputs": [
        {
          "internalType": "uint256",
          "name": "id",
          "type": "uint256"
        },
        {
          "internalType": "uint256",
          "name": "timestamp",
          "type": "uint256"
        },
        {
          "internalType": "uint256",
          "name": "totalEnergy",
          "type": "uint256"
        },
        {
          "internalType": "uint256",
          "name": "chainLength",
          "type": "uint256"
        }
      ],
      "stateMutability": "view",
      "type": "function"
    },
    {
      "inputs": [],
      "name": "claimBonusPoints",
      "outputs": [],
      "stateMutability": "nonpayable",
      "type": "function"
    },
    {
      "inputs": [],
      "name": "currentRoundNumber",
      "outputs": [
        {
          "internalType": "uint256",
          "name": "",
          "type": "uint256"
        }
      ],
      "stateMutability": "view",
      "type": "function"
    },
    {
      "inputs": [
        {
          "internalType": "uint256",
          "name": "x",
          "type": "uint256"
        },
        {
          "internalType": "uint256",
          "name": "y",
          "type": "uint256"
        },
        {
          "internalType": "enum ChainReactionGame.ReactorType",
          "name": "rType",
          "type": "uint8"
        },
        {
          "internalType": "uint256",
          "name": "energy",
          "type": "uint256"
        }
      ],
      "name": "deployReactor",
      "outputs": [],
      "stateMutability": "nonpayable",
      "type": "function"
    },
    {
      "inputs": [],
      "name": "gameStartTime",
      "outputs": [
        {
          "internalType": "uint256",
          "name": "",
          "type": "uint256"
        }
      ],
      "stateMutability": "view",
      "type": "function"
    },
    {
      "inputs": [],
      "name": "getAllReactors",
      "outputs": [
        {
          "components": [
            {
              "internalType": "uint256",
              "name": "id",
              "type": "uint256"
            },
            {
              "internalType": "address",
              "name": "owner",
              "type": "address"
            },
            {
              "internalType": "uint256",
              "name": "x",
              "type": "uint256"
            },
            {
              "internalType": "uint256",
              "name": "y",
              "type": "uint256"
            },
            {
              "internalType": "enum ChainReactionGame.ReactorType",
              "name": "rType",
              "type": "uint8"
            },
            {
              "internalType": "uint256",
              "name": "energy",
              "type": "uint256"
            },
            {
              "internalType": "bool",
              "name": "isActive",
              "type": "bool"
            },
            {
              "internalType": "uint256",
              "name": "points",
              "type": "uint256"
            }
          ],
          "internalType": "struct ChainReactionGame.Reactor[]",
          "name": "",
          "type": "tuple[]"
        }
      ],
      "stateMutability": "view",
      "type": "function"
    },
    {
      "inputs": [],
      "name": "getCurrentPhase",
      "outputs": [
        {
          "internalType": "string",
          "name": "",
          "type": "string"
        }
      ],
      "stateMutability": "view",
      "type": "function"
    },
    {
      "inputs": [],
      "name": "getCurrentRoundNumber",
      "outputs": [
        {
          "internalType": "uint256",
          "name": "",
          "type": "uint256"
        }
      ],
      "stateMutability": "view",
      "type": "function"
    },
    {
      "inputs": [],
      "name": "getCurrentUtcRound",
      "outputs": [
        {
          "internalType": "uint256",
          "name": "",
          "type": "uint256"
        }
      ],
      "stateMutability": "view",
      "type": "function"
    },
    {
      "inputs": [
        {
          "internalType": "enum ChainReactionGame.ReactorType",
          "name": "rType",
          "type": "uint8"
        }
      ],
      "name": "getDeployFee",
      "outputs": [
        {
          "internalType": "uint256",
          "name": "",
          "type": "uint256"
        }
      ],
      "stateMutability": "pure",
      "type": "function"
    },
    {
      "inputs": [],
      "name": "getGameStats",
      "outputs": [
        {
          "internalType": "uint256",
          "name": "",
          "type": "uint256"
        },
        {
          "internalType": "uint256",
          "name": "",
          "type": "uint256"
        },
        {
          "internalType": "uint256",
          "name": "",
          "type": "uint256"
        }
      ],
      "stateMutability": "view",
      "type": "function"
    },
    {
      "inputs": [
        {
          "internalType": "uint256",
          "name": "topN",
          "type": "uint256"
        }
      ],
      "name": "getLeaderboard",
      "outputs": [
        {
          "internalType": "address[]",
          "name": "",
          "type": "address[]"
        },
        {
          "internalType": "uint256[]",
          "name": "",
          "type": "uint256[]"
        }
      ],
      "stateMutability": "view",
      "type": "function"
    },
    {
      "inputs": [],
      "name": "getPhaseTimeRemaining",
      "outputs": [
        {
          "internalType": "uint256",
          "name": "",
          "type": "uint256"
        }
      ],
      "stateMutability": "view",
      "type": "function"
    },
    {
      "inputs": [
        {
          "internalType": "address",
          "name": "player",
          "type": "address"
        }
      ],
      "name": "getPlayerReactors",
      "outputs": [
        {
          "internalType": "uint256[]",
          "name": "",
          "type": "uint256[]"
        }
      ],
      "stateMutability": "view",
      "type": "function"
    },
    {
      "inputs": [
        {
          "internalType": "address",
          "name": "player",
          "type": "address"
        }
      ],
      "name": "getPlayerStats",
      "outputs": [
        {
          "internalType": "uint256",
          "name": "",
          "type": "uint256"
        },
        {
          "internalType": "uint256",
          "name": "",
          "type": "uint256"
        },
        {
          "internalType": "uint256",
          "name": "",
          "type": "uint256"
        },
        {
          "internalType": "uint256",
          "name": "",
          "type": "uint256"
        }
      ],
      "stateMutability": "view",
      "type": "function"
    },
    {
      "inputs": [],
      "name": "globalRoundStartTime",
      "outputs": [
        {
          "internalType": "uint256",
          "name": "",
          "type": "uint256"
        }
      ],
      "stateMutability": "view",
      "type": "function"
    },
    {
      "inputs": [],
      "name": "isGameActive",
      "outputs": [
        {
          "internalType": "bool",
          "name": "",
          "type": "bool"
        }
      ],
      "stateMutability": "view",
      "type": "function"
    },
    {
      "inputs": [
        {
          "internalType": "address",
          "name": "",
          "type": "address"
        }
      ],
      "name": "isPlayer",
      "outputs": [
        {
          "internalType": "bool",
          "name": "",
          "type": "bool"
        }
      ],
      "stateMutability": "view",
      "type": "function"
    },
    {
      "inputs": [
        {
          "internalType": "address",
          "name": "player",
          "type": "address"
        }
      ],
      "name": "isRoundActive",
      "outputs": [
        {
          "internalType": "bool",
          "name": "",
          "type": "bool"
        }
      ],
      "stateMutability": "view",
      "type": "function"
    },
    {
      "inputs": [],
      "name": "lastBoardResetRound",
      "outputs": [
        {
          "internalType": "uint256",
          "name": "",
          "type": "uint256"
        }
      ],
      "stateMutability": "view",
      "type": "function"
    },
    {
      "inputs": [
        {
          "internalType": "address",
          "name": "",
          "type": "address"
        }
      ],
      "name": "lastClaimedSeason",
      "outputs": [
        {
          "internalType": "uint256",
          "name": "",
          "type": "uint256"
        }
      ],
      "stateMutability": "view",
      "type": "function"
    },
    {
      "inputs": [
        {
          "internalType": "address",
          "name": "",
          "type": "address"
        }
      ],
      "name": "lastRoundPoints",
      "outputs": [
        {
          "internalType": "uint256",
          "name": "",
          "type": "uint256"
        }
      ],
      "stateMutability": "view",
      "type": "function"
    },
    {
      "inputs": [],
      "name": "nextChainReactionId",
      "outputs": [
        {
          "internalType": "uint256",
          "name": "",
          "type": "uint256"
        }
      ],
      "stateMutability": "view",
      "type": "function"
    },
    {
      "inputs": [],
      "name": "nextReactorId",
      "outputs": [
        {
          "internalType": "uint256",
          "name": "",
          "type": "uint256"
        }
      ],
      "stateMutability": "view",
      "type": "function"
    },
    {
      "inputs": [],
      "name": "owner",
      "outputs": [
        {
          "internalType": "address",
          "name": "",
          "type": "address"
        }
      ],
      "stateMutability": "view",
      "type": "function"
    },
    {
      "inputs": [
        {
          "internalType": "address",
          "name": "",
          "type": "address"
        },
        {
          "internalType": "uint256",
          "name": "",
          "type": "uint256"
        }
      ],
      "name": "playerReactors",
      "outputs": [
        {
          "internalType": "uint256",
          "name": "",
          "type": "uint256"
        }
      ],
      "stateMutability": "view",
      "type": "function"
    },
    {
      "inputs": [
        {
          "internalType": "address",
          "name": "",
          "type": "address"
        }
      ],
      "name": "playerScore",
      "outputs": [
        {
          "internalType": "uint256",
          "name": "",
          "type": "uint256"
        }
      ],
      "stateMutability": "view",
      "type": "function"
    },
    {
      "inputs": [
        {
          "internalType": "uint256",
          "name": "",
          "type": "uint256"
        }
      ],
      "name": "reactors",
      "outputs": [
        {
          "internalType": "uint256",
          "name": "id",
          "type": "uint256"
        },
        {
          "internalType": "address",
          "name": "owner",
          "type": "address"
        },
        {
          "internalType": "uint256",
          "name": "x",
          "type": "uint256"
        },
        {
          "internalType": "uint256",
          "name": "y",
          "type": "uint256"
        },
        {
          "internalType": "enum ChainReactionGame.ReactorType",
          "name": "rType",
          "type": "uint8"
        },
        {
          "internalType": "uint256",
          "name": "energy",
          "type": "uint256"
        },
        {
          "internalType": "bool",
          "name": "isActive",
          "type": "bool"
        },
        {
          "internalType": "uint256",
          "name": "points",
          "type": "uint256"
        }
      ],
      "stateMutability": "view",
      "type": "function"
    },
    {
      "inputs": [
        {
          "internalType": "address",
          "name": "",
          "type": "address"
        },
        {
          "internalType": "uint256",
          "name": "",
          "type": "uint256"
        }
      ],
      "name": "reactorsDeployedThisRound",
      "outputs": [
        {
          "internalType": "uint256",
          "name": "",
          "type": "uint256"
        }
      ],
      "stateMutability": "view",
      "type": "function"
    },
    {
      "inputs": [],
      "name": "renounceOwnership",
      "outputs": [],
      "stateMutability": "nonpayable",
      "type": "function"
    },
    {
      "inputs": [
        {
          "internalType": "address",
          "name": "",
          "type": "address"
        }
      ],
      "name": "roundsParticipated",
      "outputs": [
        {
          "internalType": "uint256",
          "name": "",
          "type": "uint256"
        }
      ],
      "stateMutability": "view",
      "type": "function"
    },
    {
      "inputs": [],
      "name": "season",
      "outputs": [
        {
          "internalType": "uint256",
          "name": "",
          "type": "uint256"
        }
      ],
      "stateMutability": "view",
      "type": "function"
    },
    {
      "inputs": [],
      "name": "seasonStartTime",
      "outputs": [
        {
          "internalType": "uint256",
          "name": "",
          "type": "uint256"
        }
      ],
      "stateMutability": "view",
      "type": "function"
    },
    {
      "inputs": [
        {
          "internalType": "address",
          "name": "newOwner",
          "type": "address"
        }
      ],
      "name": "transferOwnership",
      "outputs": [],
      "stateMutability": "nonpayable",
      "type": "function"
    },
    {
      "inputs": [
        {
          "internalType": "uint256[]",
          "name": "reactorIds",
          "type": "uint256[]"
        }
      ],
      "name": "triggerReactor",
      "outputs": [],
      "stateMutability": "nonpayable",
      "type": "function"
    }
  ],
  "bytecode": "0x6080604052600160025560016003556000600f5560016010553480156200002557600080fd5b5033600073ffffffffffffffffffffffffffffffffffffffff168173ffffffffffffffffffffffffffffffffffffffff16036200009c5760006040517f1e4fbdf7000000000000000000000000000000000000000000000000000000008152600401620000939190620001e1565b60405180910390fd5b620000ad81620000d860201b60201c565b50600180819055504260048190555042600d819055506001600e8190555042601181905550620001fe565b60008060009054906101000a900473ffffffffffffffffffffffffffffffffffffffff169050816000806101000a81548173ffffffffffffffffffffffffffffffffffffffff021916908373ffffffffffffffffffffffffffffffffffffffff1602179055508173ffffffffffffffffffffffffffffffffffffffff168173ffffffffffffffffffffffffffffffffffffffff167f8be0079c531659141344cd1fd0a4f28419497f9722a3daafe3b4186f6b6457e060405160405180910390a35050565b600073ffffffffffffffffffffffffffffffffffffffff82169050919050565b6000620001c9826200019c565b9050919050565b620001db81620001bc565b82525050565b6000602082019050620001f86000830184620001d0565b92915050565b614083806200020e6000396000f3fe608060405234801561001057600080fd5b506004361061028a5760003560e01c806381860e9b1161015c578063a3a40ea5116100ce578063eda7c6ee11610087578063eda7c6ee146107fd578063f10714a21461082d578063f23c98051461084b578063f2fde38b14610867578063f814718c14610883578063f8225752146108b35761028a565b8063a3a40ea514610734578063c50b0fb014610752578063d239dacf14610770578063d2decc8c1461078e578063d5a14326146107c1578063dc185e35146107df5761028a565b8063979942ed11610120578063979942ed1461068157806399064c611461069f5780639c4780d8146106bd5780639cd487be146106db578063a296eabe146106f9578063a34b46fe146107035761028a565b806381860e9b146105c957806382b813dc146105e757806388d2fc27146106175780638da5cb5b1461063357806391c50ddd146106515761028a565b8063517f7099116102005780636abe3547116101b95780636abe354714610505578063705015fc14610535578063715018a61461055357806379b019811461055d5780637df141081461058d5780638104ae4d146105ab5761028a565b8063517f7099146104265780635395acf91461045d5780635ebca45a1461047b5780636150ef6b146104995780636641ea08146104b757806366a76c78146104d55761028a565b8063175ff9ad11610252578063175ff9ad1461035b5780631aff30dd146103795780631fdebc44146103995780632a998c6c146103b757806332bb2958146103d55780634fd66eae146103f35761028a565b80630252b9951461028f5780630544ce5e146102ad57806306a80b8c146102dd57806309c95e101461030d5780630c0ef2b01461033d575b600080fd5b6102976108e3565b6040516102a49190613024565b60405180910390f35b6102c760048036038101906102c2919061307f565b6108e9565b6040516102d491906130ed565b60405180910390f35b6102f760048036038101906102f2919061312d565b610928565b6040516103049190613024565b60405180910390f35b61032760048036038101906103229190613186565b610a21565b60405161033491906131ce565b60405180910390f35b610345610a41565b60405161035291906131ce565b60405180910390f35b610363610a4a565b6040516103709190613024565b60405180910390f35b610381610a50565b604051610390939291906131e9565b60405180910390f35b6103a1610a8e565b6040516103ae9190613024565b60405180910390f35b6103bf610a93565b6040516103cc9190613024565b60405180910390f35b6103dd610ac7565b6040516103ea9190613024565b60405180910390f35b61040d60048036038101906104089190613186565b610acc565b60405161041d9493929190613220565b60405180910390f35b610440600480360381019061043b919061307f565b610bb1565b6040516104549897969594939291906132dc565b60405180910390f35b610465610c33565b6040516104729190613024565b60405180910390f35b610483610c40565b6040516104909190613024565b60405180910390f35b6104a1610ce5565b6040516104ae9190613024565b60405180910390f35b6104bf610d19565b6040516104cc9190613024565b60405180910390f35b6104ef60048036038101906104ea919061335a565b610d1f565b6040516104fc9190613024565b60405180910390f35b61051f600480360381019061051a9190613186565b610d44565b60405161052c9190613024565b60405180910390f35b61053d610d5c565b60405161054a9190613024565b60405180910390f35b61055b610d62565b005b6105776004803603810190610572919061335a565b610d76565b6040516105849190613024565b60405180910390f35b610595610da7565b6040516105a29190613024565b60405180910390f35b6105b3610dac565b6040516105c09190613024565b60405180910390f35b6105d1610db2565b6040516105de9190613024565b60405180910390f35b61060160048036038101906105fc9190613186565b610db8565b60405161060e9190613024565b60405180910390f35b610631600480360381019061062c919061339a565b610dd0565b005b61063b610de3565b60405161064891906130ed565b60405180910390f35b61066b60048036038101906106669190613186565b610e0c565b6040516106789190613024565b60405180910390f35b610689610e24565b604051610696919061358f565b60405180910390f35b6106a7610fe2565b6040516106b49190613024565b60405180910390f35b6106c5610fe8565b6040516106d29190613024565b60405180910390f35b6106e3610fee565b6040516106f09190613024565b60405180910390f35b610701610ff3565b005b61071d6004803603810190610718919061307f565b6111be565b60405161072b92919061370f565b60405180910390f35b61073c611670565b60405161074991906137d6565b60405180910390f35b61075a6117b9565b6040516107679190613024565b60405180910390f35b6107786117bf565b6040516107859190613024565b60405180910390f35b6107a860048036038101906107a3919061307f565b6117c4565b6040516107b89493929190613220565b60405180910390f35b6107c96117f4565b6040516107d69190613024565b60405180910390f35b6107e76117f9565b6040516107f49190613024565b60405180910390f35b61081760048036038101906108129190613186565b611800565b6040516108249190613024565b60405180910390f35b610835611818565b6040516108429190613024565b60405180910390f35b61086560048036038101906108609190613940565b61181d565b005b610881600480360381019061087c9190613186565b611f6f565b005b61089d60048036038101906108989190613186565b611ff5565b6040516108aa91906131ce565b60405180910390f35b6108cd60048036038101906108c89190613186565b612010565b6040516108da9190613989565b60405180910390f35b60045481565b600881815481106108f957600080fd5b906000526020600020016000915054906101000a900473ffffffffffffffffffffffffffffffffffffffff1681565b600080600381111561093d5761093c613265565b5b8260038111156109505761094f613265565b5b0361096557670de0b6b3a76400009050610a1c565b6001600381111561097957610978613265565b5b82600381111561098c5761098b613265565b5b036109a157670a688906bd8b00009050610a1c565b600260038111156109b5576109b4613265565b5b8260038111156109c8576109c7613265565b5b036109dd576706f05b59d3b200009050610a1c565b6003808111156109f0576109ef613265565b5b826003811115610a0357610a02613265565b5b03610a17576658d15e176280009050610a1c565b600090505b919050565b60096020528060005260406000206000915054906101000a900460ff1681565b60006001905090565b600d5481565b60008060006001600254610a6491906139da565b6001600354610a7391906139da565b61012c600454610a839190613a0e565b925092509250909192565b600a81565b6000806201518042610aa59190613a71565b9050600161012c82610ab79190613aa2565b610ac19190613a0e565b91505090565b603c81565b600080600080600a60008673ffffffffffffffffffffffffffffffffffffffff1673ffffffffffffffffffffffffffffffffffffffff16815260200190815260200160002054600b60008773ffffffffffffffffffffffffffffffffffffffff1673ffffffffffffffffffffffffffffffffffffffff16815260200190815260200160002054600c60008873ffffffffffffffffffffffffffffffffffffffff1673ffffffffffffffffffffffffffffffffffffffff1681526020019081526020016000205461012c600d54610ba29190613a0e565b93509350935093509193509193565b60056020528060005260406000206000915090508060000154908060010160009054906101000a900473ffffffffffffffffffffffffffffffffffffffff16908060020154908060030154908060040160009054906101000a900460ff16908060050154908060060160009054906101000a900460ff16908060070154905088565b681b1ae4d6e2ef50000081565b6000806201518042610c529190613a71565b9050600061012c82610c649190613a71565b90506078811015610c8557806078610c7c91906139da565b92505050610ce2565b607880610c929190613a0e565b811015610cba5780607880610ca79190613a0e565b610cb191906139da565b92505050610ce2565b61012c811015610cdb578061012c610cd291906139da565b92505050610ce2565b6000925050505b90565b600080600d5442610cf691906139da565b905061012c81610d069190613aa2565b600e54610d139190613a0e565b91505090565b61012c81565b6012602052816000526040600020602052806000526040600020600091509150505481565b600b6020528060005260406000206000915090505481565b60035481565b610d6a6120a7565b610d74600061212e565b565b60076020528160005260406000208181548110610d9257600080fd5b90600052602060002001600091509150505481565b600a81565b60115481565b600f5481565b600a6020528060005260406000206000915090505481565b610ddd84848484336121f2565b50505050565b60008060009054906101000a900473ffffffffffffffffffffffffffffffffffffffff16905090565b60136020528060005260406000206000915090505481565b606060006001600254610e3791906139da565b905060008167ffffffffffffffff811115610e5557610e546137fd565b5b604051908082528060200260200182016040528015610e8e57816020015b610e7b612f9c565b815260200190600190039081610e735790505b5090506000600190505b828111610fd9576005600082815260200190815260200160002060405180610100016040529081600082015481526020016001820160009054906101000a900473ffffffffffffffffffffffffffffffffffffffff1673ffffffffffffffffffffffffffffffffffffffff1673ffffffffffffffffffffffffffffffffffffffff16815260200160028201548152602001600382015481526020016004820160009054906101000a900460ff166003811115610f5757610f56613265565b5b6003811115610f6957610f68613265565b5b8152602001600582015481526020016006820160009054906101000a900460ff1615151515815260200160078201548152505082600183610faa91906139da565b81518110610fbb57610fba613ad3565b5b60200260200101819052508080610fd190613b02565b915050610e98565b50809250505090565b60025481565b600e5481565b607881565b601054601360003373ffffffffffffffffffffffffffffffffffffffff1673ffffffffffffffffffffffffffffffffffffffff1681526020019081526020016000205410611076576040517f08c379a000000000000000000000000000000000000000000000000000000000815260040161106d90613bbc565b60405180910390fd5b61107f336129c8565b681b1ae4d6e2ef500000600a60003373ffffffffffffffffffffffffffffffffffffffff1673ffffffffffffffffffffffffffffffffffffffff16815260200190815260200160002060008282546110d79190613a0e565b92505081905550601054601360003373ffffffffffffffffffffffffffffffffffffffff1673ffffffffffffffffffffffffffffffffffffffff168152602001908152602001600020819055503373ffffffffffffffffffffffffffffffffffffffff167f4b97a5e5e9b332836eea24e70b760c1ffce3041c0eb15309837d180f8bfff26a681b1ae4d6e2ef500000600a60003373ffffffffffffffffffffffffffffffffffffffff1673ffffffffffffffffffffffffffffffffffffffff168152602001908152602001600020546040516111b4929190613bdc565b60405180910390a2565b606080600060088054905084106111da576008805490506111dc565b835b905060008167ffffffffffffffff8111156111fa576111f96137fd565b5b6040519080825280602002602001820160405280156112285781602001602082028036833780820191505090505b50905060008267ffffffffffffffff811115611247576112466137fd565b5b6040519080825280602002602001820160405280156112755781602001602082028036833780820191505090505b509050600060088054806020026020016040519081016040528092919081815260200182805480156112fc57602002820191906000526020600020905b8160009054906101000a900473ffffffffffffffffffffffffffffffffffffffff1673ffffffffffffffffffffffffffffffffffffffff16815260200190600101908083116112b2575b505050505090506000815167ffffffffffffffff8111156113205761131f6137fd565b5b60405190808252806020026020018201604052801561134e5781602001602082028036833780820191505090505b50905060005b82518110156113e957600a600084838151811061137457611373613ad3565b5b602002602001015173ffffffffffffffffffffffffffffffffffffffff1673ffffffffffffffffffffffffffffffffffffffff168152602001908152602001600020548282815181106113ca576113c9613ad3565b5b60200260200101818152505080806113e190613b02565b915050611354565b5060005b8581101561165f57600081905060006001836114099190613a0e565b90505b84518110156114685783828151811061142857611427613ad3565b5b602002602001015184828151811061144357611442613ad3565b5b60200260200101511115611455578091505b808061146090613b02565b91505061140c565b5082818151811061147c5761147b613ad3565b5b602002602001015183838151811061149757611496613ad3565b5b60200260200101518484815181106114b2576114b1613ad3565b5b602002602001018584815181106114cc576114cb613ad3565b5b60200260200101828152508281525050508381815181106114f0576114ef613ad3565b5b602002602001015184838151811061150b5761150a613ad3565b5b602002602001015185848151811061152657611525613ad3565b5b602002602001018684815181106115405761153f613ad3565b5b602002602001018273ffffffffffffffffffffffffffffffffffffffff1673ffffffffffffffffffffffffffffffffffffffff168152508273ffffffffffffffffffffffffffffffffffffffff1673ffffffffffffffffffffffffffffffffffffffff1681525050508382815181106115bc576115bb613ad3565b5b60200260200101518683815181106115d7576115d6613ad3565b5b602002602001019073ffffffffffffffffffffffffffffffffffffffff16908173ffffffffffffffffffffffffffffffffffffffff168152505082828151811061162457611623613ad3565b5b602002602001015185838151811061163f5761163e613ad3565b5b60200260200101818152505050808061165790613b02565b9150506113ed565b508383965096505050505050915091565b6060600062015180426116839190613a71565b9050600061012c826116959190613a71565b905060788110156116df576040518060400160405280600681526020017f4445504c4f590000000000000000000000000000000000000000000000000000815250925050506117b6565b6078806116ec9190613a0e565b811015611732576040518060400160405280600781526020017f5452494747455200000000000000000000000000000000000000000000000000815250925050506117b6565b61012c81101561177b576040518060400160405280600781526020017f53434f52494e4700000000000000000000000000000000000000000000000000815250925050506117b6565b6040518060400160405280600581526020017f454e444544000000000000000000000000000000000000000000000000000000815250925050505b90565b60105481565b606481565b60066020528060005260406000206000915090508060000154908060020154908060030154908060040154905084565b607881565b624f1a0081565b600c6020528060005260406000206000915090505481565b601e81565b611825612c06565b61182d612dc5565b6000620151804261183e9190613a71565b9050600061012c826118509190613a71565b90506078811015801561186e575060788061186b9190613a0e565b81105b6118ad576040517f08c379a00000000000000000000000000000000000000000000000000000000081526004016118a490613c51565b60405180910390fd5b600083511180156118c05750600a835111155b6118ff576040517f08c379a00000000000000000000000000000000000000000000000000000000081526004016118f690613cbd565b60405180910390fd5b6000806000805b8651811015611c285760006005600089848151811061192857611927613ad3565b5b6020026020010151815260200190815260200160002090508060060160009054906101000a900460ff16611991576040517f08c379a000000000000000000000000000000000000000000000000000000000815260040161198890613d29565b60405180910390fd5b3373ffffffffffffffffffffffffffffffffffffffff168160010160009054906101000a900473ffffffffffffffffffffffffffffffffffffffff1673ffffffffffffffffffffffffffffffffffffffff1614611a23576040517f08c379a0000000000000000000000000000000000000000000000000000000008152600401611a1a90613d95565b60405180910390fd5b60006003811115611a3757611a36613265565b5b8160040160009054906101000a900460ff166003811115611a5b57611a5a613265565b5b03611aa057600985611a6d9190613a0e565b9450678ac7230489e8000084611a839190613a0e565b9350670de0b6b3a764000083611a999190613a0e565b9250611c14565b60016003811115611ab457611ab3613265565b5b8160040160009054906101000a900460ff166003811115611ad857611ad7613265565b5b03611b1d57604185611aea9190613a0e565b9450670a688906bd8b000084611b009190613a0e565b9350670a688906bd8b000083611b169190613a0e565b9250611c13565b60026003811115611b3157611b30613265565b5b8160040160009054906101000a900460ff166003811115611b5557611b54613265565b5b03611b9a57600485611b679190613a0e565b94506706f05b59d3b2000084611b7d9190613a0e565b93506706f05b59d3b2000083611b939190613a0e565b9250611c12565b600380811115611bad57611bac613265565b5b8160040160009054906101000a900460ff166003811115611bd157611bd0613265565b5b03611c1157600f85611be39190613a0e565b94506703782dace9d9000084611bf99190613a0e565b93506658d15e1762800083611c0e9190613a0e565b92505b5b5b5b508080611c2090613b02565b915050611906565b506000805b8751811015611d7e576000600560008a8481518110611c4f57611c4e613ad3565b5b60200260200101518152602001908152602001600020905060016003811115611c7b57611c7a613265565b5b8160040160009054906101000a900460ff166003811115611c9f57611c9e613265565b5b1480611cdf5750600380811115611cb957611cb8613265565b5b8160040160009054906101000a900460ff166003811115611cdd57611cdc613265565b5b145b15611d235767016345785d8a0000611d078260040160009054906101000a900460ff16610928565b611d119190613aa2565b83611d1c9190613a0e565b9250611d6a565b600a670de0b6b3a7640000611d488360040160009054906101000a900460ff16610928565b611d529190613aa2565b611d5c9190613db5565b83611d679190613a0e565b92505b508080611d7690613b02565b915050611c2d565b50605a841115611d8d57605a93505b60006064423344604051602001611da693929190613e60565b6040516020818303038152906040528051906020012060001c611dc99190613a71565b9050848110611e7f5783600a60003373ffffffffffffffffffffffffffffffffffffffff1673ffffffffffffffffffffffffffffffffffffffff1681526020019081526020016000206000828254611e219190613a0e565b9250508190555083600b60003373ffffffffffffffffffffffffffffffffffffffff1673ffffffffffffffffffffffffffffffffffffffff1681526020019081526020016000206000828254611e779190613a0e565b925050819055505b87600081518110611e9357611e92613ad3565b5b60200260200101517f6e99ba71572f84778974fdda51e67225ef6bbf94695f73a7fe52de7eb1d43c4085600354604051611ece929190613bdc565b60405180910390a23373ffffffffffffffffffffffffffffffffffffffff167f4b97a5e5e9b332836eea24e70b760c1ffce3041c0eb15309837d180f8bfff26a85600a60003373ffffffffffffffffffffffffffffffffffffffff1673ffffffffffffffffffffffffffffffffffffffff16815260200190815260200160002054604051611f5d929190613bdc565b60405180910390a25050505050505050565b611f776120a7565b600073ffffffffffffffffffffffffffffffffffffffff168173ffffffffffffffffffffffffffffffffffffffff1603611fe95760006040517f1e4fbdf7000000000000000000000000000000000000000000000000000000008152600401611fe091906130ed565b60405180910390fd5b611ff28161212e565b50565b600061012c600d546120079190613a0e565b42109050919050565b6060600760008373ffffffffffffffffffffffffffffffffffffffff1673ffffffffffffffffffffffffffffffffffffffff16815260200190815260200160002080548060200260200160405190810160405280929190818152602001828054801561209b57602002820191906000526020600020905b815481526020019060010190808311612087575b50505050509050919050565b6120af612f94565b73ffffffffffffffffffffffffffffffffffffffff166120cd610de3565b73ffffffffffffffffffffffffffffffffffffffff161461212c576120f0612f94565b6040517f118cdaa700000000000000000000000000000000000000000000000000000000815260040161212391906130ed565b60405180910390fd5b565b60008060009054906101000a900473ffffffffffffffffffffffffffffffffffffffff169050816000806101000a81548173ffffffffffffffffffffffffffffffffffffffff021916908373ffffffffffffffffffffffffffffffffffffffff1602179055508173ffffffffffffffffffffffffffffffffffffffff168173ffffffffffffffffffffffffffffffffffffffff167f8be0079c531659141344cd1fd0a4f28419497f9722a3daafe3b4186f6b6457e060405160405180910390a35050565b6121fa612c06565b612202612dc5565b6000821180156122135750600a8211155b612252576040517f08c379a000000000000000000000000000000000000000000000000000000000815260040161224990613ee9565b60405180910390fd5b600062015180426122639190613a71565b9050600061012c826122759190613a71565b9050607881106122ba576040517f08c379a00000000000000000000000000000000000000000000000000000000081526004016122b190613f55565b60405180910390fd5b6000600161012c846122cc9190613aa2565b6122d69190613a0e565b9050600a601260008673ffffffffffffffffffffffffffffffffffffffff1673ffffffffffffffffffffffffffffffffffffffff1681526020019081526020016000206000838152602001908152602001600020541061236b576040517f08c379a000000000000000000000000000000000000000000000000000000000815260040161236290613fc1565b60405180910390fd5b600960008573ffffffffffffffffffffffffffffffffffffffff1673ffffffffffffffffffffffffffffffffffffffff16815260200190815260200160002060009054906101000a900460ff166125a6576008849080600181540180825580915050600190039060005260206000200160009091909190916101000a81548173ffffffffffffffffffffffffffffffffffffffff021916908373ffffffffffffffffffffffffffffffffffffffff1602179055506001600960008673ffffffffffffffffffffffffffffffffffffffff1673ffffffffffffffffffffffffffffffffffffffff16815260200190815260200160002060006101000a81548160ff021916908315150217905550681b1ae4d6e2ef500000600a60008673ffffffffffffffffffffffffffffffffffffffff1673ffffffffffffffffffffffffffffffffffffffff168152602001908152602001600020819055506000600c60008673ffffffffffffffffffffffffffffffffffffffff1673ffffffffffffffffffffffffffffffffffffffff168152602001908152602001600020819055506000600b60008673ffffffffffffffffffffffffffffffffffffffff1673ffffffffffffffffffffffffffffffffffffffff168152602001908152602001600020819055508373ffffffffffffffffffffffffffffffffffffffff167f3330a6773675f31f62070870f40379f8c6d42e3761410011a4dfc42b18043d2f681b1ae4d6e2ef50000060405161259d9190613024565b60405180910390a25b60006125b187610928565b905080600a60008773ffffffffffffffffffffffffffffffffffffffff1673ffffffffffffffffffffffffffffffffffffffff168152602001908152602001600020541015612635576040517f08c379a000000000000000000000000000000000000000000000000000000000815260040161262c9061402d565b60405180910390fd5b80600a60008773ffffffffffffffffffffffffffffffffffffffff1673ffffffffffffffffffffffffffffffffffffffff168152602001908152602001600020600082825461268491906139da565b925050819055506000600260008154809291906126a090613b02565b9190505590506040518061010001604052808281526020018773ffffffffffffffffffffffffffffffffffffffff1681526020018b81526020018a81526020018960038111156126f3576126f2613265565b5b81526020018881526020016001151581526020016000815250600560008381526020019081526020016000206000820151816000015560208201518160010160006101000a81548173ffffffffffffffffffffffffffffffffffffffff021916908373ffffffffffffffffffffffffffffffffffffffff160217905550604082015181600201556060820151816003015560808201518160040160006101000a81548160ff021916908360038111156127af576127ae613265565b5b021790555060a0820151816005015560c08201518160060160006101000a81548160ff02191690831515021790555060e08201518160070155905050600760008773ffffffffffffffffffffffffffffffffffffffff1673ffffffffffffffffffffffffffffffffffffffff1681526020019081526020016000208190806001815401808255809150506001900390600052602060002001600090919091909150556001601260008873ffffffffffffffffffffffffffffffffffffffff1673ffffffffffffffffffffffffffffffffffffffff168152602001908152602001600020600085815260200190815260200160002060008282546128b29190613a0e565b925050819055506001601260008873ffffffffffffffffffffffffffffffffffffffff1673ffffffffffffffffffffffffffffffffffffffff16815260200190815260200160002060008581526020019081526020016000205403612969576001600c60008873ffffffffffffffffffffffffffffffffffffffff1673ffffffffffffffffffffffffffffffffffffffff16815260200190815260200160002060008282546129619190613a0e565b925050819055505b8573ffffffffffffffffffffffffffffffffffffffff16817fdee00f8777475c640393f9937acd298a8c7fb234ae8816a128074a2bae0c5d048c8c8b6040516129b4939291906131e9565b60405180910390a350505050505050505050565b600960008273ffffffffffffffffffffffffffffffffffffffff1673ffffffffffffffffffffffffffffffffffffffff16815260200190815260200160002060009054906101000a900460ff16612c03576008819080600181540180825580915050600190039060005260206000200160009091909190916101000a81548173ffffffffffffffffffffffffffffffffffffffff021916908373ffffffffffffffffffffffffffffffffffffffff1602179055506001600960008373ffffffffffffffffffffffffffffffffffffffff1673ffffffffffffffffffffffffffffffffffffffff16815260200190815260200160002060006101000a81548160ff021916908315150217905550681b1ae4d6e2ef500000600a60008373ffffffffffffffffffffffffffffffffffffffff1673ffffffffffffffffffffffffffffffffffffffff168152602001908152602001600020819055506000600c60008373ffffffffffffffffffffffffffffffffffffffff1673ffffffffffffffffffffffffffffffffffffffff168152602001908152602001600020819055506000600b60008373ffffffffffffffffffffffffffffffffffffffff1673ffffffffffffffffffffffffffffffffffffffff168152602001908152602001600020819055508073ffffffffffffffffffffffffffffffffffffffff167f3330a6773675f31f62070870f40379f8c6d42e3761410011a4dfc42b18043d2f681b1ae4d6e2ef500000604051612bfa9190613024565b60405180910390a25b50565b60006201518042612c179190613a71565b90506000600161012c83612c2b9190613aa2565b612c359190613a0e565b9050600f54811115612dc1576000600190505b600254811015612cf257600560008281526020019081526020016000206000808201600090556001820160006101000a81549073ffffffffffffffffffffffffffffffffffffffff0219169055600282016000905560038201600090556004820160006101000a81549060ff021916905560058201600090556006820160006101000a81549060ff0219169055600782016000905550508080612cea90613b02565b915050612c48565b50600160028190555060005b600880549050811015612db857600060088281548110612d2157612d20613ad3565b5b9060005260206000200160009054906101000a900473ffffffffffffffffffffffffffffffffffffffff1690506000601260008373ffffffffffffffffffffffffffffffffffffffff1673ffffffffffffffffffffffffffffffffffffffff168152602001908152602001600020600085815260200190815260200160002081905550508080612db090613b02565b915050612cfe565b5080600f819055505b5050565b624f1a00601154612dd69190613a0e565b4210612f925760106000815480929190612def90613b02565b91905055504260118190555060005b600880549050811015612f9057600060088281548110612e2157612e20613ad3565b5b9060005260206000200160009054906101000a900473ffffffffffffffffffffffffffffffffffffffff169050681b1ae4d6e2ef500000600a60008373ffffffffffffffffffffffffffffffffffffffff1673ffffffffffffffffffffffffffffffffffffffff168152602001908152602001600020819055506000600c60008373ffffffffffffffffffffffffffffffffffffffff1673ffffffffffffffffffffffffffffffffffffffff168152602001908152602001600020819055506000600b60008373ffffffffffffffffffffffffffffffffffffffff1673ffffffffffffffffffffffffffffffffffffffff168152602001908152602001600020819055508073ffffffffffffffffffffffffffffffffffffffff167f3330a6773675f31f62070870f40379f8c6d42e3761410011a4dfc42b18043d2f681b1ae4d6e2ef500000604051612f749190613024565b60405180910390a2508080612f8890613b02565b915050612dfe565b505b565b600033905090565b60405180610100016040528060008152602001600073ffffffffffffffffffffffffffffffffffffffff168152602001600081526020016000815260200160006003811115612fee57612fed613265565b5b815260200160008152602001600015158152602001600081525090565b6000819050919050565b61301e8161300b565b82525050565b60006020820190506130396000830184613015565b92915050565b6000604051905090565b600080fd5b600080fd5b61305c8161300b565b811461306757600080fd5b50565b60008135905061307981613053565b92915050565b60006020828403121561309557613094613049565b5b60006130a38482850161306a565b91505092915050565b600073ffffffffffffffffffffffffffffffffffffffff82169050919050565b60006130d7826130ac565b9050919050565b6130e7816130cc565b82525050565b600060208201905061310260008301846130de565b92915050565b6004811061311557600080fd5b50565b60008135905061312781613108565b92915050565b60006020828403121561314357613142613049565b5b600061315184828501613118565b91505092915050565b613163816130cc565b811461316e57600080fd5b50565b6000813590506131808161315a565b92915050565b60006020828403121561319c5761319b613049565b5b60006131aa84828501613171565b91505092915050565b60008115159050919050565b6131c8816131b3565b82525050565b60006020820190506131e360008301846131bf565b92915050565b60006060820190506131fe6000830186613015565b61320b6020830185613015565b6132186040830184613015565b949350505050565b60006080820190506132356000830187613015565b6132426020830186613015565b61324f6040830185613015565b61325c6060830184613015565b95945050505050565b7f4e487b7100000000000000000000000000000000000000000000000000000000600052602160045260246000fd5b600481106132a5576132a4613265565b5b50565b60008190506132b682613294565b919050565b60006132c6826132a8565b9050919050565b6132d6816132bb565b82525050565b6000610100820190506132f2600083018b613015565b6132ff602083018a6130de565b61330c6040830189613015565b6133196060830188613015565b61332660808301876132cd565b61333360a0830186613015565b61334060c08301856131bf565b61334d60e0830184613015565b9998505050505050505050565b6000806040838503121561337157613370613049565b5b600061337f85828601613171565b92505060206133908582860161306a565b9150509250929050565b600080600080608085870312156133b4576133b3613049565b5b60006133c28782880161306a565b94505060206133d38782880161306a565b93505060406133e487828801613118565b92505060606133f58782880161306a565b91505092959194509250565b600081519050919050565b600082825260208201905092915050565b6000819050602082019050919050565b6134368161300b565b82525050565b613445816130cc565b82525050565b613454816132bb565b82525050565b613463816131b3565b82525050565b61010082016000820151613480600085018261342d565b506020820151613493602085018261343c565b5060408201516134a6604085018261342d565b5060608201516134b9606085018261342d565b5060808201516134cc608085018261344b565b5060a08201516134df60a085018261342d565b5060c08201516134f260c085018261345a565b5060e082015161350560e085018261342d565b50505050565b60006135178383613469565b6101008301905092915050565b6000602082019050919050565b600061353c82613401565b613546818561340c565b93506135518361341d565b8060005b83811015613582578151613569888261350b565b975061357483613524565b925050600181019050613555565b5085935050505092915050565b600060208201905081810360008301526135a98184613531565b905092915050565b600081519050919050565b600082825260208201905092915050565b6000819050602082019050919050565b60006135e9838361343c565b60208301905092915050565b6000602082019050919050565b600061360d826135b1565b61361781856135bc565b9350613622836135cd565b8060005b8381101561365357815161363a88826135dd565b9750613645836135f5565b925050600181019050613626565b5085935050505092915050565b600081519050919050565b600082825260208201905092915050565b6000819050602082019050919050565b6000613698838361342d565b60208301905092915050565b6000602082019050919050565b60006136bc82613660565b6136c6818561366b565b93506136d18361367c565b8060005b838110156137025781516136e9888261368c565b97506136f4836136a4565b9250506001810190506136d5565b5085935050505092915050565b600060408201905081810360008301526137298185613602565b9050818103602083015261373d81846136b1565b90509392505050565b600081519050919050565b600082825260208201905092915050565b60005b83811015613780578082015181840152602081019050613765565b60008484015250505050565b6000601f19601f8301169050919050565b60006137a882613746565b6137b28185613751565b93506137c2818560208601613762565b6137cb8161378c565b840191505092915050565b600060208201905081810360008301526137f0818461379d565b905092915050565b600080fd5b7f4e487b7100000000000000000000000000000000000000000000000000000000600052604160045260246000fd5b6138358261378c565b810181811067ffffffffffffffff82111715613854576138536137fd565b5b80604052505050565b600061386761303f565b9050613873828261382c565b919050565b600067ffffffffffffffff821115613893576138926137fd565b5b602082029050602081019050919050565b600080fd5b60006138bc6138b784613878565b61385d565b905080838252602082019050602084028301858111156138df576138de6138a4565b5b835b8181101561390857806138f4888261306a565b8452602084019350506020810190506138e1565b5050509392505050565b600082601f830112613927576139266137f8565b5b81356139378482602086016138a9565b91505092915050565b60006020828403121561395657613955613049565b5b600082013567ffffffffffffffff8111156139745761397361304e565b5b61398084828501613912565b91505092915050565b600060208201905081810360008301526139a381846136b1565b905092915050565b7f4e487b7100000000000000000000000000000000000000000000000000000000600052601160045260246000fd5b60006139e58261300b565b91506139f08361300b565b9250828203905081811115613a0857613a076139ab565b5b92915050565b6000613a198261300b565b9150613a248361300b565b9250828201905080821115613a3c57613a3b6139ab565b5b92915050565b7f4e487b7100000000000000000000000000000000000000000000000000000000600052601260045260246000fd5b6000613a7c8261300b565b9150613a878361300b565b925082613a9757613a96613a42565b5b828206905092915050565b6000613aad8261300b565b9150613ab88361300b565b925082613ac857613ac7613a42565b5b828204905092915050565b7f4e487b7100000000000000000000000000000000000000000000000000000000600052603260045260246000fd5b6000613b0d8261300b565b91507fffffffffffffffffffffffffffffffffffffffffffffffffffffffffffffffff8203613b3f57613b3e6139ab565b5b600182019050919050565b7f416c726561647920636c61696d656420626f6e7573207468697320736561736f60008201527f6e00000000000000000000000000000000000000000000000000000000000000602082015250565b6000613ba6602183613751565b9150613bb182613b4a565b604082019050919050565b60006020820190508181036000830152613bd581613b99565b9050919050565b6000604082019050613bf16000830185613015565b613bfe6020830184613015565b9392505050565b7f4e6f7420696e2074726967676572207068617365000000000000000000000000600082015250565b6000613c3b601483613751565b9150613c4682613c05565b602082019050919050565b60006020820190508181036000830152613c6a81613c2e565b9050919050565b7f496e76616c696420636861696e206c656e677468000000000000000000000000600082015250565b6000613ca7601483613751565b9150613cb282613c71565b602082019050919050565b60006020820190508181036000830152613cd681613c9a565b9050919050565b7f52656163746f72206e6f74206163746976650000000000000000000000000000600082015250565b6000613d13601283613751565b9150613d1e82613cdd565b602082019050919050565b60006020820190508181036000830152613d4281613d06565b9050919050565b7f4e6f7420796f75722072656163746f7200000000000000000000000000000000600082015250565b6000613d7f601083613751565b9150613d8a82613d49565b602082019050919050565b60006020820190508181036000830152613dae81613d72565b9050919050565b6000613dc08261300b565b9150613dcb8361300b565b9250828202613dd98161300b565b91508282048414831517613df057613def6139ab565b5b5092915050565b6000819050919050565b613e12613e0d8261300b565b613df7565b82525050565b60008160601b9050919050565b6000613e3082613e18565b9050919050565b6000613e4282613e25565b9050919050565b613e5a613e55826130cc565b613e37565b82525050565b6000613e6c8286613e01565b602082019150613e7c8285613e49565b601482019150613e8c8284613e01565b602082019150819050949350505050565b7f496e76616c696420656e65726779206c6576656c000000000000000000000000600082015250565b6000613ed3601483613751565b9150613ede82613e9d565b602082019050919050565b60006020820190508181036000830152613f0281613ec6565b9050919050565b7f4465706c6f792070686173652068617320656e64656400000000000000000000600082015250565b6000613f3f601683613751565b9150613f4a82613f09565b602082019050919050565b60006020820190508181036000830152613f6e81613f32565b9050919050565b7f4d61782072656163746f7273206465706c6f796564207468697320726f756e64600082015250565b6000613fab602083613751565b9150613fb682613f75565b602082019050919050565b60006020820190508181036000830152613fda81613f9e565b9050919050565b7f496e73756666696369656e7420706f696e747320746f206465706c6f79000000600082015250565b6000614017601d83613751565b915061402282613fe1565b602082019050919050565b600060208201905081810360008301526140468161400a565b905091905056fea264697066735822122033ad96f1dd2dea689b6cb98b244a3d20a10dafae2bbb0662bcb40c705115390e64736f6c63430008140033",
  "linkReferences": {},
  "deployedLinkReferences": {}
}